:100000000C945A010C9477010C9477010C947701AD
:100010000C9477010C9477010C9477010C940704ED
:100020000C9477010C9477010C9477010C94770170
:100030000C9477010C9477010C9477010C94770160
:100040000C9477010C9477010C947C040C94770148
:100050000C9477010C9477010C9477010C94770140
:100060000C9477010C9477016E616E00696E6600E6
:100070006364696E6F70737578585B656667454633
:100080004700616E006E66696E69747900CDCCCCF4
:100090003D0AD7233C17B7D13877CC2B329595E65C
:1000A000241FB14F0A000020410000C84200401C3C
:1000B0004620BCBE4CCA1B0E5AAEC59D740A3F20DA
:1000C000252525303258000A3E206C6F636B2025B1
:1000D000303258000A3E206675736520253032584C
:1000E00000313000313000554E4F5F545049000A06
:1000F0003C2073696720202530325825303258253E
:10010000303258000A3E206C6F636B202530325825
:10011000000A3E20667573652025303258002D0098
:100120000A3C20002B000A3E20000A3E2065726136
:100130007365002D000A3C20002B000A3E20002B96
:10014000000A3E20000A3A20256420627974657313
:10015000000A3A2070726F6720257300554E4F5F7A
:100160005450492076312E3100415474696E7934EF
:100170000000001E8F0A0400400800200041547453
:10018000696E79350000001E8F09050040080020C7
:1001900000415474696E79390000001E900809000E
:1001A0004008004000415474696E79313000001EEF
:1001B00090031000400800400000407A10F35A00FD
:1001C000A0724E18090010A5D4E80000E876481780
:1001D0000000E40B54020000CA9A3B000000E1F565
:1001E00005000080969800000040420F000000A02B
:1001F0008601000000102700000000E80300000056
:10020000006400000000000A00000000000100007F
:100210000000002C76D888DC674F0823DFC1DFAEF2
:1002200059E1B1B796E5E3E453C63AE651997696BB
:10023000E8E6C28426EB898C9B62ED407C6FFCEF84
:10024000BC9C9F40F2BAA56FA5F490055A2AF75CB2
:10025000936B6CF9676DC11BFCE0E40D47FEF52064
:10026000E6B500D0ED902E0300943577050080842C
:100270001E080000204E0A000000C80C3333333340
:100280000F986E12831141EF8D2114893BE65516AC
:10029000CFFEE6DB18D1844B381BF77C1D901DA4E4
:1002A000BBE424203284725E228100C9F124ECA1D7
:1002B000E53D270011241FBECFEFD8E0DEBFCDBF44
:1002C00011E0A0E0B1E0E0EEFEE202C005900D9288
:1002D000A830B107D9F721E0A8E0B1E001C01D9234
:1002E000AB3DB207E1F70E94590F0C946E170C94C6
:1002F00000001092C00087E08093C40088E18093E2
:10030000C10086E08093C20062EA71E082E991E078
:100310000E94C81408959091C00095FFFCCF80936F
:10032000C60008950E948B0180E090E008958091BE
:10033000C000807808958091C00087FFFCCF809135
:10034000C60008950E949B01082E000C990B089589
:10035000559A5D98549A5C98539A5B98529A5A9819
:1003600085E08A95F1F70000089555985D985498B6
:100370005C9853985B9852985A9885E08A95F1F763
:10038000000008955E9A85E08A95F1F700004A9989
:1003900002C090E001C098E04B9902C030E001C07B
:1003A00034E04C9902C080E001C082E029B15E983F
:1003B00025FB222720F9922B932B892B0895CF938D
:1003C000DF9328985F9A0E94B5010E94C20190E1D4
:1003D0008902E00111240E94C2018C2B87FDF5CF18
:1003E00085E18A95F1F700000E94C2018295807F25
:1003F000809327010E94C20190912701892B80934D
:100400002701DF91CF910895A1E0B0E0EAE0F2E0AA
:100410000C946A13289A5F9A0E94B5010E94C20147
:1004200090E18902800111240E94C201802B8983FE
:100430000E94DF0189812196E4E00C948613A1E0FB
:10044000B0E0E5E2F2E00C946C135F9889830E94BF
:10045000A801898180FF02C05D9A01C05D9881FF7B
:1004600002C05C9A01C05C9882FF02C05B9A01C026
:100470005B9883FF02C05A9A01C05A985E9A85E041
:100480008A95F1F700005E9885E08A95F1F7000003
:100490002196E2E00C948813CF93C82F82958F7039
:1004A0000E941F028C2F8F700E941F020E94DF018A
:1004B000CF91089528980E944C02089581E00E94EF
:1004C0005A0282E00E945A020895882311F08DE0BA
:1004D00001C08CE00E945A020895882379F081308F
:1004E00059F0823019F48091000109C0833031F451
:1004F00080910001805C03C080E401C080E0860F31
:1005000080680E945A020895FF920F931F93CF9321
:10051000DF93C0E0D0E08091000190E0C817D907D8
:10052000ECF401E010E08091010190E00817190758
:100530009CF46C2F802F0E946D02289A0E94040266
:10054000F82E6C2F8FEF800F0E946D028F2D0E946E
:10055000CD020F5F1F4FE7CF2196DDCF80910101C4
:1005600060E081500E946D02C0E0D0E08091000107
:1005700090E0C817D90734F4289A80E20E944C0210
:100580002196F4CF8091010160E081500E946D02BC
:10059000CDB7DEB7E5E00C9485138A3011F08D30CD
:1005A000E9F49091270180910001981728F090912B
:1005B0002701903420F480E48093270112C0209119
:1005C0002701482F50E0415C5F4F30E0421753074E
:1005D00014F0805CF1CF1092270103C0289A0E948A
:1005E0004C029091270180910001981303C060E0B4
:1005F00081E00FC02091270130E090E0805C9F4FA8
:100600002817390761F480910101843029F460E0F2
:1006100082E00E946D0208950E94840208958091F4
:100620002701803419F460E083E0F3CF8091270143
:10063000882391F308950E94CD0280E090E0089510
:100640006F927F928F92AF92BF92CF92DF92EF9292
:10065000FF920F931F93CF93DF93CDB7DEB7D62EC4
:10066000F42E122FB090270198E0899F30011124B9
:100670002898862D806482958F700E941F02862D97
:100680008F700E941F0285ED8A95F1F70000289A6D
:100690008D2D82958F700E941F028D2D8F700E946C
:1006A0001F0295ED9A95F1F700008F2D82958F70BE
:1006B0000E941F028F2D8F700E941F0285ED8A9568
:1006C000F1F70000812F82958F700E941F02812F09
:1006D0008F700E941F0295ED9A95F1F70000802F10
:1006E00082958F700E941F02802F8F700E941F02C0
:1006F00085ED8A95F1F700008E2D82958F700E940E
:100700001F028E2D8F700E941F0295ED9A95F1F7B2
:1007100000008C2D82958F700E941F028C2D8F708F
:100720000E941F0285ED8A95F1F700008A2D8295BF
:100730008F700E941F028A2D8F700E941F0295EDFC
:100740009A95F1F70000882D82958F700E941F0204
:10075000882D8F700E941F0285ED8A95F1F70000A9
:100760008B2D80680E945A02DF91CF911F910F91CB
:10077000FF90EF90DF90CF90BF90AF908F907F90E1
:100780006F9008958093010160930001209A28984A
:10079000569A5E98579A5F982FEF81EE94E0215019
:1007A00080409040E1F700C00000289883E00E945C
:1007B0001F028FEB9DE50197F1F700C0000083E079
:1007C0000E941F0287E592E00197F1F700C0000048
:1007D00083E00E941F0287E592E00197F1F700C0D5
:1007E000000082E00E941F029AED9A95F1F700C086
:1007F00088E20E944C028CE00E944C0286E00E943B
:100800004C0284E10E944C020E945E02089578949A
:100810001F920F920FB60F9211244F935F936F9315
:100820007F938F939F93AF93BF938091210190917A
:100830002201A0912301B09124010196A11DB11DB7
:100840008093210190932201A0932301B09324016E
:1008500080910801882361F180912101909122010A
:10086000A0912301B091240140910A0150910B0104
:1008700060910C0170910D01841B950BA60BB70BB9
:10088000C397A105B105A0F08091210190912201AB
:10089000A0912301B091240180930A0190930B0150
:1008A000A0930C01B0930D0198B180E2892788B91B
:1008B000BF91AF919F918F917F916F915F914F9178
:1008C0000F900FBE0F901F90189590910901809185
:1008D00020019817D1F3E091090181E08E0F8093F8
:1008E0000901F0E0E05BFE4F8081909109019038B2
:1008F00011F41092090108951F920F920FB60F92F2
:1009000011248F93EF93FF93E091200181E08E0FEC
:1009100080932001F0E08091C600E05BFE4F808371
:1009200080912001803811F410922001FF91EF9105
:100930008F910F900FBE0F901F9018959091C0004F
:1009400095FFFCCF8093C6000895CF93DF93FC0101
:100950002491EC012196222331F0FC0184910E9424
:100960009E04CE01F4CFDF91CF9108958EBD0DB4DA
:1009700007FEFDCF8EB50895CF93DF9390913E0192
:1009800091111FC0D82F282F22952F702827822F32
:10099000869586952827C22FC695C22728E0D29F24
:1009A000C001112483600E94B6048D2F8295869524
:1009B0008770806F98E0C99F90011124822B0E945C
:1009C000B604DF91CF910895CF92DF92EF92FF921C
:1009D000CF93DF93C0913E01C11138C0C090210177
:1009E000D0902201E0902301F09024018091210118
:1009F00090912201A0912301B09124018C199D09AD
:100A0000AE09BF0985369105A105B10528F081E041
:100A100080933E01449A1BC08FEF0E94B6048F3F23
:100A200029F3D82F8FEF0E94B604C82F8D2F8F7017
:100A30008F3049F48FEF0E94B60405C0CC0FD7FD6C
:100A4000C160DD0FD160DF37C9F701C0C0E08C2F76
:100A5000DF91CF91FF90EF90DF90CF900895CF93EB
:100A6000C82F83EF0E94BC048C2F0E94BC04CF913E
:100A70000895A2E0B0E0EFE3F5E00C946C139A83E4
:100A8000898388E60E94BC0489819A810E94BC0403
:100A900089E60E94BC0489819A81892F0E94BC0446
:100AA0002296E2E00C94881384E20E94BC040E9427
:100AB000E4040895A2E0B0E0E0E6F5E00C946C13E5
:100AC0009A83898384E60E94BC0489819A810E946A
:100AD000BC0484E60E94BC0489819A81892F0E940B
:100AE000BC042296E2E00C94881382E70E94BC04C6
:100AF0000E94E40491E0803809F090E0892F089585
:100B000010920801459A80EC0E94BC0480E00E948B
:100B1000BC048FE39CE90197F1F700C000001CBC06
:100B200025982D9823982B9824982C982A988FE311
:100B30009CE90197F1F700C0000008951CBC259ABC
:100B4000239A24982C982D9A2B988CE0EFE9FFE0BB
:100B50003197F1F700C000002D98EFE9FFE03197E1
:100B6000F1F700C000002D9A815081F78FE99FE0D6
:100B70000197F1F700C000002B9AEFE3FFE13197F6
:100B8000F1F700C000002B988CE0EFE9FFE031970F
:100B9000F1F700C000002D98EFE9FFE03197F1F781
:100BA00000C000002D9A815081F78FE99FE00197E6
:100BB000F1F700C000002B9AEFE3FFE13197F1F766
:100BC00000C0000025982D9823982B980895A7E041
:100BD000B0E0EDEEF5E00C946A138091080181110C
:100BE0006BC0449810923E01229A2A9A8FE39CE9A6
:100BF0000197F1F700C000000E949E05259A239AF4
:100C000024982C9881E78CBD81E08DBD8FE99FE011
:100C10000197F1F700C000008FEF0E94B6048FEF3C
:100C20000E94B6048FEF0E94B60480EE0E94BC04BE
:100C300018E02FEF38E848ED5DEC65E47BEA09E861
:100C400092E1822F29833A834B835C836D837E8379
:100C50009F830E94BC0429813A814B815C816D8114
:100C60007E81802F9F8108E00E949513082F1150EC
:100C700041F716E680913E0181110EC0115029F412
:100C800082E080933E01449A07C080E80E94BC0441
:100C90000E94E40481FFEECF80913E0181110AC0E1
:100CA00082EC0E94BC0486E00E94BC0481E0809338
:100CB000080102C00E94800580E02796E4E00C94C1
:100CC00086130F931F93CF93DF930E94E7058DE167
:100CD0000E942F0580EC9FE30E9439050E94540575
:100CE00080933F010E945405809340010E94540567
:100CF0008093410103E711E0C0E0D0E043E050E021
:100D0000B8018FE391E00E949A14892BB9F4AAE20A
:100D1000B1E084E18C9F90018D9F300D112480E023
:100D200090E0FC01E20FF31FE759FE4FE491ED93D1
:100D3000019684319105A9F780E007C021960C5EE9
:100D40001F4FC430D105D1F682E0DF91CF911F91C2
:100D50000F910895CF93DF93EC010E9465040E94E8
:100D60006504CE010E9439050E945405C82F0E94D7
:100D70009E048DE00E949E048C2FDF91CF910895F8
:100D80000F931F93CF938C01C62F84E10E942F05F0
:100D9000C8010E9439058FEF9FEF0E945A050E94FB
:100DA00075058111FCCF8DE10E942F05C8010E94BD
:100DB00039058C2F90E09F6F0E945A050E9475059F
:100DC0008111FCCF0E949E048DE00E949E04CF9171
:100DD0001F910F910895A3E1B0E0E1EFF6E00C94CC
:100DE0005C136C014B012A01FC011782168283817E
:100DF00081FF43C3AE014F5F5F4F3A01F60193811C
:100E0000F40193FD859193FF81914F01882309F4AB
:100E100030C3853239F493FD859193FF81914F0161
:100E2000853239F4B60190E00E946C15520125011B
:100E3000E5CF10E0F12C20E02032A0F48B3269F0F5
:100E400030F4803259F0833269F420612CC08D3245
:100E500039F0803339F4216026C02260246023C039
:100E6000286021C027FD27C030ED380F3A3078F4D4
:100E700026FF06C0FAE01F9F300D1124132F13C068
:100E80004AE0F49E300D1124F32E20620CC08E3205
:100E900021F426FDEEC2206406C08C3611F42068D1
:100EA00002C0883641F4F40193FD859193FF81914E
:100EB0004F018111C1CF9BEB980F933018F4206143
:100EC000805E06C09BE9980F933008F071C12F7EB9
:100ED00026FF16E02F73322E853619F42064322E49
:100EE00008C0863621F4F22FF0683F2E02C011119F
:100EF000115037FE07C01C3350F4EE24E394E10E8A
:100F000027E00BC0183038F027E017E005C027E0D5
:100F10004CE3E42E02C0212FE12C520144E0A40E48
:100F2000B11CF20160817181828193810E2DA30138
:100F30000E94B1132C01098100FF02C003FF07C00A
:100F400031FC08C032FE09C030E2232E07C02DE27A
:100F5000222E04C09BE2292E01C0212C802F8C70F0
:100F600019F0211068C2A8C237FE0FC0E40C04FFBC
:100F700004C08A81813309F4EA941E1474F5F8E000
:100F8000FE1578F588E0E82E2CC036FC2AC0812FAB
:100F900090E0841595059CF02CEF42162FEF520639
:100FA00074F0432D4068342E0AC0E2E0F0E0EC0F0C
:100FB000FD1FE10FF11D8081803319F411501111D3
:100FC000F4CF37FE0EC0EE24E394E10E812F90E0C3
:100FD000481659062CF4141904C0EE24E39401C0F9
:100FE00010E037FE06C01414150434F4C201019653
:100FF00005C085E090E002C081E090E021100196FC
:10100000112331F0212F30E02F5F3F4F820F931FCC
:101010002F2D30E08217930714F4F81A01C0F12C39
:10102000832D897049F4FF2039F0B60180E290E009
:101030000E946C15FA94F7CF222029F0B601822D78
:1010400090E00E946C1533FC09C0FF2039F0B60116
:1010500080E390E00E946C15FA94F7CF37FE5AC0F7
:10106000942D852D57FE02C090E080E0292E382E69
:1010700020E030E0A2014E1951095D874C87A201A2
:10108000421953095F874E87612F70E04427552727
:10109000461B570B598B488B5FEF2516350649F4D5
:1010A000B6018EE290E02A8B3B8B0E946C153B8947
:1010B0002A89421453046CF04C855D854215530512
:1010C00044F4EE85FF85E20FF31FE60DF71D8181E5
:1010D00001C080E351E0251A31082F5F3F4F488956
:1010E0005989241635064CF0B60190E02A8B3B8BCB
:1010F0000E946C152A893B89CFCF2414350439F41A
:101100009A81963318F4953311F404FF81E3B60104
:1011100090E04BC08A81813309F00F7EB60190E0E8
:101120000E946C15111105C034FC18C085E690E0D2
:1011300017C0B6018EE290E00E946C1582E0EE24AA
:10114000E394E80EF301E80FF11D8081B60190E011
:101150000E946C1511508E2D91F7E6CF85E490E03A
:10116000B6010E946C1557FC05C04114510439F4B6
:1011700004FF05C05194419451088DE201C08BE2F7
:10118000B60190E00E946C1580E39AE04916510484
:101190002CF08F5F5AE0451A5108F7CFB60190E066
:1011A0000E946C15B601C201C0960E946C1557C111
:1011B000833631F0833779F0833509F058C021C088
:1011C0005201E2E0AE0EB11CF2018081898301E0A0
:1011D00010E0230114C05201F2E0AF0EB11CF20185
:1011E0004080518026FF03C0612F70E002C06FEF86
:1011F0007FEFC2012A8B0E94BD148C012A892F77B0
:1012000015C05201F2E0AF0EB11CF20140805180D6
:1012100026FF03C0612F70E002C06FEF7FEFC201B5
:101220002A8B0E94B2148C012A892068322E23FD59
:101230001AC08F2D90E008171907A8F4B60180E2B4
:1012400090E00E946C15FA94F4CFF20137FC85917E
:1012500037FE81912F01B60190E00E946C15F110CC
:10126000FA94015011090115110579F7F8C0843677
:1012700011F0893659F5520127FF09C0F4E0AF0E8D
:10128000B11CF20160817181828193810AC0F2E018
:10129000AF0EB11CF20160817181072E000C880B2A
:1012A000990B2F76322E97FF09C0909580957095F7
:1012B00061957F4F8F4F9F4F2068322E2AE030E09C
:1012C000A3010E94BD15E82EE6183FC0022F853706
:1012D00021F40F7E2AE030E01DC0097F8F3691F0A7
:1012E00018F4883559F0C5C0803719F0883711F0E7
:1012F000C0C0006104FF09C0046007C024FF08C02B
:10130000066006C028E030E005C020E130E002C001
:1013100020E132E0520107FF09C0F4E0AF0EB11C3A
:10132000F201608171818281938108C0F2E0AF0E89
:10133000B11CF2016081718180E090E0A3010E9404
:10134000BD15E82EE6180F77302E36FE0BC0332D74
:101350003E7FE11650F434FE0AC032FC08C0332D43
:101360003E7E05C00E2D332D03C00E2D01C0012F72
:1013700034FF0CC0FE01EE0DF11D8081803311F4AD
:10138000397E08C032FF05C00E5F04C0832F867807
:1013900009F00F5F33FD13C030FF06C01E2D0F157F
:1013A00018F41F0D101B0F2D0F1568F4B60180E205
:1013B00090E03B8B0E946C150F5F3B89F5CF0F15BA
:1013C00010F4F01A01C0F12C34FF12C0B60180E312
:1013D00090E03B8B0E946C153B8932FF17C031FDBA
:1013E00003C088E790E002C088E590E0B6010CC039
:1013F000832F867859F031FF02C08BE201C080E272
:1014000037FD8DE2B60190E00E946C15E11638F4CC
:10141000B60180E390E00E946C151150F7CFEA947A
:10142000F301EE0DF11D8081B60190E00E946C1574
:10143000E110F5CF14C0F4E0FF1558F584E0F81A78
:1014400033FE1EC0211026C003FF2AC008E610E0AC
:10145000F32DF0713F2EF8018491811124C0FF20FB
:1014600009F4E5CCB60180E290E00E946C15FA9494
:10147000F6CFF6018681978126C08FEF9FEF23C0BC
:10148000B60180E290E00E946C15FA94F110F8CF5A
:10149000D9CFF12CB601822D90E00E946C15D4CFEB
:1014A0000CE610E0D5CF31108052B60190E00E94DA
:1014B0006C150F5F1F4FCFCF23E02F1510F483E083
:1014C000BECFF12CC1CF6396E2E10C94781320FDDE
:1014D00009C0FC0123FD05C022FF02C073836283A3
:1014E00051834083089544FD10C046FD10C0DB01C8
:1014F000FC01AA0FBB1FEE1FFF1F1094D1F76A0F4C
:101500007B1F8E1F9F1F31E003C033E001C034E01A
:10151000660F771F881F991F3150D1F7620F711D19
:10152000811D911D08950F931F93CF93DF938C011D
:10153000C8010E941315EC0197FD08C00E94891490
:10154000892BB1F7B801CE010E94A415CE01DF911D
:10155000CF911F910F910895A0E0B0E0E2EBFAE087
:101560000C9462137C018B016A01D22F0E94131527
:101570009C0133272B32310521F02D32310559F4EE
:10158000D0680150110911F480E069C0C7010E94C0
:10159000131597FDF9CFCD2FCD7F2D2F207309F592
:1015A0008033F9F4580181E0A81AB10809F443C066
:1015B000C7010E94131597FD3EC0282F2F7D2835A7
:1015C00051F4C26402501109B1F1C7010E94131510
:1015D00097FF07C030C0D6FF02C0C26001C0C26121
:1015E0008501812C912C540120ED280F283080F0AA
:1015F000C4FF04C0B7010E94A4151AC02A3040F0ED
:10160000C6FFF8CF2F7D3FEE320F363098F72750C8
:101610004C2FC501B4010E94730A4B015C01C260EA
:101620000150110959F0C7010E94131597FFDCCF33
:10163000C1FD04C0A9CF812C912C5401C7FF08C063
:10164000B094A09490948094811C911CA11CB11C16
:101650002C2FB501A401C6010E94670A81E0CDB715
:10166000DEB7ECE00C947E13A0E2B0E0EAE3FBE02E
:101670000C945E134C015B017A018E010F5F1F4FCA
:10168000680180E2F80111928A95E9F7F40163801C
:1016900040E050E0712C412C80E0A1E0B0E0F90185
:1016A00063FC559063FE51908F01952D9F01511061
:1016B00003C080E090E080C0FEE55F1203C04115EA
:1016C000510561F1682F70E0641775074CF46DE502
:1016D000561669F1EDE25E1203C0442009F103C021
:1016E000411001C0752C692F669566956695F601C7
:1016F000E60FF11D692F67708D0102C0000F111FE9
:101700006A95E2F7B8017081672B6083971559F0ED
:10171000971510F49F5FE7CF9150E5CF81E004C0AB
:101720004424439401C0412C4F5F5F4FB8CF442005
:1017300019F09E8190629E83811103C07724739477
:1017400018C0F6019E012F5D3F4F808180958193E7
:10175000E217F307D1F7F2CFE114F10429F0F70112
:101760008083C70101967C0191E0A91AB108712C10
:10177000E9F0C4010E94131597FD16C0282F269585
:1017800026952695F601E20FF11D208130E0AC018F
:101790004770552702C0359527954A95E2F720FDF9
:1017A000DBCFB4010E94A415711083CFE114F104C2
:1017B00011F0F7011082C801A096E0E10C947A13B1
:1017C000A6E0B0E0E6EEFBE00C945C135C017B016C
:1017D0001A010E9413159E838D8399278B329105E0
:1017E00021F08D9789F410E801C010E021E0E21AA1
:1017F000F10811F480E02CC1C5010E9413159E83ED
:101800008D8397FF02C0F6CF10E08D819E810E94EC
:1018100092148936910549F08E36910509F03BC046
:1018200062E8862E60E0962E04C075E8872E70E090
:10183000972EEFEF8E1A9E0AF40131970491002340
:10184000C9F081E0E81AF10871F0C5010E94131592
:101850006C0197FD08C00E949214081751F3B5015E
:10186000C6010E94A41598E8891690E0990609F02F
:10187000C1CF05C0F5E88F16F0E09F0629F080E0A3
:1018800090E0A0E8BFE704C080E090E0A0ECBFE7F4
:10189000BC01CD01CDC0412C512C3201C12CD12C29
:1018A0002D8120532A3018F5012F0260812F887076
:1018B00012FF06C0811121C02FEFC21AD20A1DC02B
:1018C000882319F081E0C81AD10840E2C301B201AF
:1018D0000E94730A2B013C0198E9491699E95906BF
:1018E000690699E1790648F0012F066006C02E3F8F
:1018F00091F413FD10C0012F0860E1E0EE1AF10829
:1019000049F0C5010E9413159E838D83102F97FF08
:10191000C7CF01C0102F11FF6DCF8D818F7D853412
:1019200009F04EC04701F1E08F1A910809F462CF27
:10193000C5010E9413159E838D8397FD5BCF992768
:101940008B32910519F08D9761F41061470122E007
:10195000821A910809F44ECFC5010E9413159E8387
:101960008D838D819E81C0970A9708F043CF7401C3
:10197000812C912CB401990C880B990B2D8120534B
:1019800040E20E94730AAB01BC014A0181E0E81AFF
:10199000F10871F0C50149835A836B837C830E94EF
:1019A00013159E838D83C09749815A810A9710F33E
:1019B00014FF04C088249924841A950AC80CD91CE1
:1019C000EF2841F0ED81FE81F7FD04C0B501CF01A4
:1019D0000E94A415C301B2010E945E0ED7FE08C08A
:1019E000D194C194D10851EA852E50E0952E04C0BF
:1019F00049EB842E40E0942E5401F8E1AF1AB1086F
:101A000030E2E32EF12CCE14DF0450F0F4012591E6
:101A10003591459154910E949B0ECE18DF08F3CF6B
:101A200024E0821A9108F694E7948A149B0459F7EB
:101A300017FF05C0DC01CB01B058BC01CD0121145A
:101A4000310429F0F101608371838283938381E003
:101A50002696E2E10C947813A1E0B0E0E2E3FDE029
:101A60000C945E136C012B014A01FC011782168253
:101A7000A12CF601F380F201F3FC8591F3FE819134
:101A8000482F2F01882309F410C190E049830E9458
:101A900089144981892B21F0C6010E94930AE9CF5C
:101AA000453241F4F201F3FC4591F3FE41912F01DF
:101AB000453269F4C60149830E941315498197FD97
:101AC000F2C04817B1F2B6010E94A415EEC04A3226
:101AD00039F4F3FC4591F3FE41912F0151E001C02F
:101AE00050E0320100E010E020ED240F2A3088F4AD
:101AF0005260B80180E090E040E259830E94730A8E
:101B00008B01F301F3FC4591F3FE41913F015981B3
:101B1000EBCFB52E342F230151FF04C00115110561
:101B200019F4C3C00FEF1FEF483619F04C3659F0C7
:101B300013C0F301F3FC3591F3FE31912F013836D8
:101B400059F45860B52EFB2DF460BF2EF201F3FC62
:101B50003591F3FE31912F01332309F4A6C0632F91
:101B600070E080E790E039830E94A7143981892BC7
:101B700009F49BC0B0FC07C0F401E080F180C4010F
:101B800002964C0102C0E12CF12C3E3651F4F601D4
:101B90004681578160E070E02B2DC7010E94670AE3
:101BA00068CF3336A9F4B1FC02C001E010E0C601F1
:101BB0000E94131597FD77C0E114F10429F0F70195
:101BC0008083C70101967C010150110981F767C02C
:101BD0003B3559F49201A701B801C6010E94340BAC
:101BE0002C01892B09F05BC055C0C60139830E94C6
:101BF000930A398197FD57C03F36D9F140F4343606
:101C0000A1F13936C9F1383509F03DC02AC0333762
:101C1000A1F018F4303729F136C0353731F13837B3
:101C200001F131C0E114F10429F0F7016082C7012C
:101C300001967C010150110971F0C6010E94131533
:101C40003C0197FD08C00E948914892B59F3B60105
:101C5000C3010E94A415E114F10409F1F7011082F7
:101C60001EC0FB2DF064BF2E07C08B2D8062B82EE6
:101C700003C09B2D9061B92E2B2DA701B801C60181
:101C80000E94AC0A05C0A701B801C6010E94E00B82
:101C9000811105C0F6018381807329F406C0B0FC70
:101CA000E8CEA394E6CEAA2019F08A2D90E002C0D7
:101CB0008FEF9FEF2196E0E10C947A13E89409C02E
:101CC00097FB3EF490958095709561957F4F8F4F6F
:101CD0009F4F9923A9F0F92F96E9BB279395F69585
:101CE000879577956795B795F111F8CFFAF4BB0F03
:101CF00011F460FF1BC06F5F7F4F8F4F9F4F16C067
:101D0000882311F096E911C0772321F09EE8872FF0
:101D1000762F05C0662371F096E8862F70E060E0AC
:101D20002AF09A95660F771F881FDAF7880F969525
:101D3000879597F908950E94AE0E0C941F0F0E948C
:101D4000110F38F00E94180F20F0952311F00C9419
:101D5000080F0C940E0F11240C94530F0E94300F97
:101D600070F3959FC1F3950F50E0551F629FF001EE
:101D7000729FBB27F00DB11D639FAA27F00DB11D07
:101D8000AA1F649F6627B00DA11D661F829F222790
:101D9000B00DA11D621F739FB00DA11D621F839F17
:101DA000A00D611D221F749F3327A00D611D231FED
:101DB000849F600D211D822F762F6A2F11249F573B
:101DC00050409AF0F1F088234AF0EE0FFF1FBB1F3E
:101DD000661F771F881F91505040A9F79E3F5105FD
:101DE00080F00C94080F0C94530F5F3FE4F3983E7F
:101DF000D4F3869577956795B795F795E7959F5FA7
:101E0000C1F7FE2B880F911D9695879597F9089538
:101E100097F99F6780E870E060E008959FEF80EC9D
:101E2000089500240A941616170618060906089540
:101E300000240A9412161306140605060895092EA6
:101E40000394000C11F4882352F0BB0F40F4BF2B15
:101E500011F460FF04C06F5F7F4F8F4F9F4F089555
:101E600057FD9058440F551F59F05F3F71F047954B
:101E7000880F97FB991F61F09F3F79F08795089530
:101E8000121613061406551FF2CF4695F1DF08C04F
:101E9000161617061806991FF1CF8695710561056C
:101EA00008940895E894BB2766277727CB0197F914
:101EB000089564E184E00E94C20380E191E02BE197
:101EC00033E0309319012093180110921B011092F6
:101ED0001A01C2E0C093130110921D0110921C015F
:101EE0002CE531E03F932F939F938F930E945115E0
:101EF0000E94790180E18093C400C093C00080916A
:101F0000C10080688093C100C093B00085E08093D9
:101F1000B1008DE78093B300C09370003D9A3C9A66
:101F20003998419A389A409A459A229A2A987894F0
:101F300020902101309022014090230150902401F3
:101F40000F900F900F900F9000E010E0F12CC0E187
:101F5000D1E0AAE2AA2EA1E0BA2EB1E58B2EB1E023
:101F60009B2E80913E01882329F0809108018111E8
:101F70000E9480059091090180912001981709F431
:101F80004EC30E946504863509F4BFC208F04CC0F8
:101F9000853409F42BC310F5813409F4AAC038F450
:101FA0008B3109F43CC38E3209F4B9C225C38234A3
:101FB00009F451C1833409F01FC384E60E94BC04B4
:101FC0000E9465040E94BC0480910E0190910F0153
:101FD000029690930F0180930E01CAC0803509F4D8
:101FE0005EC0C0F4863409F423C28C3409F004C303
:101FF0000E9480058DE00E949E04809126018F93AF
:10200000809125018F9385E491E09F938F93DF93D7
:10201000CF936AC0833509F475C2843509F438C298
:10202000823509F0E9C2D3C08C3609F404C200F548
:10203000833609F477C038F4813609F458C0823603
:1020400009F4FBC0D9C2863609F4CAC1873609F43F
:1020500066C1853609F0D0C280E090E40E9439055F
:1020600080E10E942F058FEF9FEF0E945A052DC03F
:10207000833709F410C248F4803709F44EC282371E
:1020800009F0BAC280E09FE3FEC1863709F440C27E
:10209000803F09F4C4C2843709F42AC2ADC2109249
:1020A00026011092250110921F0110921E010E941C
:1020B000E705811103C08DE00E949E04BF92AF929C
:1020C0009F928F92DF93CF930FC00E94750581116D
:1020D000FCCF8DE00E949E041F930F93AAE2B1E013
:1020E000BF93AF93DF93CF930E94511592C289E5BE
:1020F00080C20E946504D82E0E9465042D2D30E018
:10210000322F2227282B220F331F809138019091E4
:102110003901820F931F90930F0180930E010E944B
:10212000390566C28DE10E942F0584E60E94BC0439
:102130000E9465040E94BC048DE00E949E04809170
:10214000250190912601892B61F4A1E4B1E0BF93B0
:10215000AF93DF93CF930E9451150F900F900F9084
:102160000F90AFE3B1E0BF93AF93DF93CF931FC066
:102170000E9475058111FCCF8DE00E949E04809124
:10218000250190912601892B61F48BE391E09F93C7
:102190008F93DF93CF930E9451150F900F900F9064
:1021A0000F9089E391E09F938F93DF93CF930E94E9
:1021B0005115809125019091260101969093260159
:1021C000809325010F900F900F900F9028C28DE102
:1021D0000E942F050E945405D82E0E9454050E948B
:1021E0009E048D2D0E949E0480910E0190910F01FE
:1021F000029690930F0180930E0180911E019091A1
:102200001F01892B61F485E391E09F938F93DF9306
:10221000CF930E9451150F900F900F900F9083E372
:1022200091E09F938F93DF93CF930E9451158091FC
:102230001E0190911F010296C1C089E50E949E0473
:102240000E9461068111EBC180913D010E949E04B4
:1022500080913C01CEC10E946504082F0E94650454
:1022600010E0102F0027082B0E9465048634E9F542
:102270008DE10E942F05C12CD12CC016D106F8F497
:1022800084E60E94BC040E9465040E94BC0484E6AB
:102290000E94BC040E9465040E94BC0480910E014F
:1022A00090910F01019690930F0180930E010E946F
:1022B00075058111FCCF82E0C80ED11CDECF8DE008
:1022C0000E948B018091250190912601892BC1F4F8
:1022D00086E291E09F938F93DF93CF930E945115F5
:1022E0000F900F900F900F900BC0C12CD12CC016E7
:1022F000D10629F30E9465049FEFC91AD90AF7CFC6
:1023000084E291E09F938F93DF93CF930E945115C6
:102310008091250190912601800F911F4FCF0E943F
:102320006504082F0E94650410E0102F0027082B79
:102330000E946504863409F046C08DE10E942F0595
:10234000380176946794C12CD12CC016D106B0F414
:102350000E9454050E949E040E9454050E949E04FF
:1023600080910E0190910F01860D971D90930F01A2
:1023700080930E0152E0C50ED11CE7CF80911E0163
:1023800090911F01892B61F4A0E2B1E0BF93AF935C
:10239000DF93CF930E9451150F900F900F900F90E5
:1023A000AEE1B1E0BF93AF93DF93CF930E9451159D
:1023B00080911E0190911F01800F911F90931F012A
:1023C00080931E01FFCEC12CD12CC016D10609F47A
:1023D00026C180E00E948B018FEFC81AD80AF5CF82
:1023E00084E10E942F0580E49FE30E9439058FEF6E
:1023F0009FEF0E945A050E9475058111FCCF8DE167
:102400000E942F0580E49FE30E9439050E94650425
:10241000D82E90E00E945A050E9475058111FCCFCC
:102420008DE00E949E041F92DF92A1E1B1E058CEA0
:1024300080E49FE328C084E10E942F0580E09FE3B1
:102440000E9439058FEF9FEF0E945A050E94750583
:102450008111FCCF8DE10E942F0580E09FE30E9457
:1024600039050E946504D82E90E00E945A050E940A
:1024700075058111FCCF8DE00E949E041F92DF92B2
:10248000A4E0B1E02DCE0E9439050E945405B1C0F0
:102490000E946504ADC00E94610681110CC080914C
:1024A00036010E949E04809135010E949E04809115
:1024B00034010E949E04809134011F928F93809179
:1024C00035011F928F93809136011F928F93AFEE4B
:1024D000B0E0BF93AF93DF93CF930E9451158DB7B8
:1024E0009EB70A960FB6F8949EBF0FBE8DBF97C0D9
:1024F0000E946106811193C0809137010E949E0461
:1025000080E077C087EE90E005C084EE90E002C0E6
:1025100081EE90E00E94A50482C083E56AC00E941B
:102520006504D82E0E9465042D2D30E0322F22271D
:10253000D901A82BCD018115B0E59B07D9F060F436
:10254000811540E3940709F43FC08115984309F0D1
:102550004BC080E89FE335C0883AACEA9A0769F03F
:10256000803EBCEA9B07D1F081159845E9F580E0F3
:102570009FE327C080E49FE324C00E9465040E947B
:102580006504D82E682F80E49FE30E94C0061F9246
:10259000DF9284ED90E09F938F93A4CD0E94650419
:1025A0000E946504D82E682F80E09FE30E94C00639
:1025B0001F92DF9287EC90E09F938F93DF93CF93EE
:1025C00093CD0E94AA062BC00E946504D82E0E94BB
:1025D00065048D2D90E08054904C0E9439050E9436
:1025E00054050E949E0404C08FE303C00E9480052E
:1025F0008DE00E949E0413C01F928F93ADEBB0E05C
:10260000BF93AF93DF93CF930E9451158FE30E9446
:102610009E040F900F900F900F900F900F9080914D
:10262000080181119ECC8091210190912201A091FD
:102630002301B09124018219930931991FC0F1102F
:102640000BC0209021013090220140902301509036
:102650002401FF24F39485CCA1E0FA1282CCC39725
:1026600008F47FCC359B04C038984098459803C047
:10267000389A409A459A92E0F92E73CCB2E0FB1258
:102680000BC02090210130902201409023015090F6
:10269000240183E0F82E65CC23E0F21262CCC397CC
:1026A00008F45FCC109221011092220110922301B4
:1026B00010922401F12C55CC2F923F924F925F92B1
:1026C0006F927F928F929F92AF92BF92CF92DF9242
:1026D000EF92FF920F931F93CF93DF93CDB7DEB7A7
:1026E000CA1BDB0B0FB6F894DEBF0FBECDBF09943B
:1026F0002A88398848885F846E847D848C849B8492
:10270000AA84B984C884DF80EE80FD800C811B819F
:10271000AA81B981CE0FD11D0FB6F894DEBF0FBECE
:10272000CDBFED01089597FB10F8169400080F93A4
:10273000083098F00850232F342F452F562F672F3D
:10274000782F892F902DF4CF0594979587957795BD
:10275000679557954795379527950A95AAF70F914D
:102760000895283008F027E03327DA01990F311D4A
:1027700087FD916000966105710539F432602E5F26
:102780003D9330E32A95E1F708959F3F30F080387C
:102790007105610509F03C5F3C5F3D93913008F0A5
:1027A0008068911DDF93CF931F930F93FF92EF9259
:1027B000192F987F9695E92F96959695E90FFF2703
:1027C000ED5EFD4F99273327EE24FF24A701E70193
:1027D00005900894079428F4360FE71EF81E491F49
:1027E000511D660F771F881F991F0694A1F705904A
:1027F000079428F4E70EF81E491F561FC11D770FD6
:10280000881F991F661F0694A1F70590079428F466
:10281000F80E491F561FC71FD11D880F991F661F2D
:10282000771F0694A1F70590079420F4490F561FCF
:10283000C71FD81F990F661F771F881F0694A9F717
:1028400084911095177041F0D695C7955795479587
:10285000F794E7941A95C1F7E9EBF1E068941590C5
:10286000159135916591959105907FE27395E118E9
:10287000F10A430B560BC90BD009C0F7E10CF11E4E
:10288000431F561FC91FD01D7EF4703311F48A9563
:10289000E6CFE894015030F0080F0AF40027021741
:1028A00008F4202F2395022F7A3328F079E37D93C3
:1028B0002A95E9F710C07D932A9589F60694979595
:1028C0006795379517951794E118F10A430B560B46
:1028D000C90BD00998F023957E9173957A3308F04F
:1028E00070E37C932013B8F77E9170617D9330F094
:1028F000839571E37D9370E32A95E1F71124EF90BE
:10290000FF900F911F91CF91DF91992787FD9095AF
:10291000089591110C946417803219F089508550F4
:10292000C8F708959111089581548A5108F4805E82
:10293000855A0895FB01DC0104C08D910590801932
:1029400021F441505040C8F7881B990B0895FC01B1
:102950000590061621F00020D9F7C001089531979F
:10296000CF010895FC010590615070400110D8F727
:10297000809590958E0F9F1F0895FC0161507040C7
:1029800001900110D8F7809590958E0F9F1F0895A4
:102990000F931F93CF93DF93009731F46115710567
:1029A00019F480E090E03AC08B01EC016EE070E039
:1029B00081E090E00E941B16FC01892B91F380E8D6
:1029C00083830115110571F01387028781E88383E2
:1029D0008091D1019091D201892B21F4F093D20101
:1029E000E093D1012097C9F0D187C08783818260AD
:1029F00083838091D3019091D401892B71F4F0935A
:102A0000D401E093D3018091D5019091D601892B17
:102A100021F4F093D601E093D501CF01DF91CF915E
:102A20001F910F910895CF93DF93EC012B8120FF2D
:102A300033C026FF0AC02F7B2B838E819F81019696
:102A40009F838E838A8190E029C022FF0FC0E88196
:102A5000F9818081082E000C990B009719F42062EF
:102A60002B831AC03196F983E8830EC0EA85FB8573
:102A7000099597FF09C02B81019611F080E201C0F2
:102A800080E1822B8B8308C02E813F812F5F3F4FD7
:102A90003F832E83992702C08FEF9FEFDF91CF9165
:102AA0000895A0E0B0E0E7E5F5E10C946A130F812A
:102AB0001885F801838188608383AE01455F5F4F8D
:102AC00069857A85C8010E94EB06F8012381277F7A
:102AD0002383E4E00C9486130F931F93CF93DF932B
:102AE000FB01238121FD03C08FEF9FEF28C022FF50
:102AF00016C046815781248135814217530744F41B
:102B0000A081B1819D012F5F3F4F318320838C9342
:102B1000268137812F5F3F4F3783268310C0EB011B
:102B2000092F182F0084F185E02D0995892BE1F6F6
:102B30008E819F8101969F838E83812F902FDF91BD
:102B4000CF911F910F910895FB01238120FF12C0A7
:102B500026FD10C08F3F3FEF930761F082832F7DEA
:102B600020642383268137812150310937832683CE
:102B7000992708958FEF9FEF0895FA01AA2728302B
:102B800051F1203181F1E8946F936E7F6E5F7F4F3A
:102B90008F4F9F4FAF4FB1E03ED0B4E03CD0670FB6
:102BA000781F891F9A1FA11D680F791F8A1F911D09
:102BB000A11D6A0F711D811D911DA11D20D009F459
:102BC00068943F912AE0269F11243019305D31939B
:102BD000DEF6CF010895462F4770405D4193B3E084
:102BE0000FD0C9F7F6CF462F4F70405D4A3318F02B
:102BF000495D31FD4052419302D0A9F7EACFB4E0DC
:102C0000A6959795879577956795BA95C9F7009793
:102C10006105710508959B01AC010A2E0694579534
:102C2000479537952795BA95C9F7620F731F841F8B
:102C3000951FA01D08950F931F93CF93DF93869F39
:102C40008001879F100D969F100D1124C8010E94CE
:102C50003716EC01009729F0A80160E070E00E94AF
:102C60006717CE01DF91CF911F910F910895CF93F8
:102C7000DF938230910510F482E090E0E091D90179
:102C8000F091DA0120E030E0C0E0D0E0309711F1BF
:102C90004081518148175907C0F04817590761F41E
:102CA00082819381209719F09B838A832BC0909314
:102CB000DA018093D90126C02115310519F0421798
:102CC000530718F49A01BE01DF01EF010280F3817E
:102CD000E02DDCCF2115310509F1281B390B2430FB
:102CE000310590F412968D919C91139761157105A1
:102CF00021F0FB019383828304C09093DA018093D7
:102D0000D901FD01329644C0FD01E20FF31F81930A
:102D10009193225031092D933C933AC02091D701D1
:102D20003091D801232B41F4209104013091050109
:102D30003093D8012093D7012091020130910301F3
:102D40002115310541F42DB73EB740910601509150
:102D50000701241B350BE091D701F091D801E21750
:102D6000F307A0F42E1B3F0B2817390778F0AC01AE
:102D70004E5F5F4F2417350748F04E0F5F1F50938B
:102D8000D8014093D7018193919302C0E0E0F0E035
:102D9000CF01DF91CF9108950F931F93CF93DF93CE
:102DA000009709F48CC0FC013297138212820091C3
:102DB000D9011091DA010115110581F420813181C9
:102DC000820F931F2091D7013091D801281739071E
:102DD00079F5F093D801E093D70171C0D80140E0B4
:102DE00050E0AE17BF0750F412962D913C91139707
:102DF000AD012115310509F1D901F3CF9D01DA01AA
:102E00003383228360817181860F971F8217930716
:102E100069F4EC0128813981260F371F2E5F3F4F5F
:102E2000318320838A819B8193838283452B29F47C
:102E3000F093DA01E093D90142C01396FC93EE932C
:102E40001297ED01499159919E01240F351FE21708
:102E5000F30771F480819181840F951F029611967A
:102E60009C938E938281938113969C938E93129759
:102E7000E0E0F0E0D80112968D919C9113970097B5
:102E800019F0F8018C01F6CF8D919C9198012E5F7D
:102E90003F4F820F931F2091D7013091D8012817FF
:102EA000390769F4309729F41092DA011092D901A8
:102EB00002C0138212821093D8010093D701DF91D0
:102EC000CF911F910F910895992788270895DC01CC
:102ED00001C06D9341505040E0F70895F894FFCF42
:00000001FF
